{
  "_format": "hh-sol-artifact-1",
  "contractName": "MusicNFTMarketplace",
  "sourceName": "src/backend/contracts/MusicNFTMarketplace.sol",
  "abi": [
    {
      "inputs": [
        {
          "internalType": "uint256",
          "name": "_royaltyFee",
          "type": "uint256"
        },
        {
          "internalType": "address",
          "name": "_artist",
          "type": "address"
        },
        {
          "internalType": "uint256[]",
          "name": "_prices",
          "type": "uint256[]"
        }
      ],
      "stateMutability": "payable",
      "type": "constructor"
    },
    {
      "anonymous": false,
      "inputs": [
        {
          "indexed": true,
          "internalType": "address",
          "name": "owner",
          "type": "address"
        },
        {
          "indexed": true,
          "internalType": "address",
          "name": "approved",
          "type": "address"
        },
        {
          "indexed": true,
          "internalType": "uint256",
          "name": "tokenId",
          "type": "uint256"
        }
      ],
      "name": "Approval",
      "type": "event"
    },
    {
      "anonymous": false,
      "inputs": [
        {
          "indexed": true,
          "internalType": "address",
          "name": "owner",
          "type": "address"
        },
        {
          "indexed": true,
          "internalType": "address",
          "name": "operator",
          "type": "address"
        },
        {
          "indexed": false,
          "internalType": "bool",
          "name": "approved",
          "type": "bool"
        }
      ],
      "name": "ApprovalForAll",
      "type": "event"
    },
    {
      "anonymous": false,
      "inputs": [
        {
          "indexed": true,
          "internalType": "uint256",
          "name": "tokenId",
          "type": "uint256"
        },
        {
          "indexed": true,
          "internalType": "address",
          "name": "seller",
          "type": "address"
        },
        {
          "indexed": false,
          "internalType": "address",
          "name": "buyer",
          "type": "address"
        },
        {
          "indexed": false,
          "internalType": "uint256",
          "name": "price",
          "type": "uint256"
        }
      ],
      "name": "MarketItemBought",
      "type": "event"
    },
    {
      "anonymous": false,
      "inputs": [
        {
          "indexed": true,
          "internalType": "uint256",
          "name": "tokenId",
          "type": "uint256"
        },
        {
          "indexed": true,
          "internalType": "address",
          "name": "seller",
          "type": "address"
        },
        {
          "indexed": false,
          "internalType": "uint256",
          "name": "price",
          "type": "uint256"
        }
      ],
      "name": "MarketItemRelisted",
      "type": "event"
    },
    {
      "anonymous": false,
      "inputs": [
        {
          "indexed": true,
          "internalType": "address",
          "name": "previousOwner",
          "type": "address"
        },
        {
          "indexed": true,
          "internalType": "address",
          "name": "newOwner",
          "type": "address"
        }
      ],
      "name": "OwnershipTransferred",
      "type": "event"
    },
    {
      "anonymous": false,
      "inputs": [
        {
          "indexed": true,
          "internalType": "address",
          "name": "from",
          "type": "address"
        },
        {
          "indexed": true,
          "internalType": "address",
          "name": "to",
          "type": "address"
        },
        {
          "indexed": true,
          "internalType": "uint256",
          "name": "tokenId",
          "type": "uint256"
        }
      ],
      "name": "Transfer",
      "type": "event"
    },
    {
      "inputs": [
        {
          "internalType": "address",
          "name": "to",
          "type": "address"
        },
        {
          "internalType": "uint256",
          "name": "tokenId",
          "type": "uint256"
        }
      ],
      "name": "approve",
      "outputs": [],
      "stateMutability": "nonpayable",
      "type": "function"
    },
    {
      "inputs": [],
      "name": "artist",
      "outputs": [
        {
          "internalType": "address",
          "name": "",
          "type": "address"
        }
      ],
      "stateMutability": "view",
      "type": "function"
    },
    {
      "inputs": [
        {
          "internalType": "address",
          "name": "owner",
          "type": "address"
        }
      ],
      "name": "balanceOf",
      "outputs": [
        {
          "internalType": "uint256",
          "name": "",
          "type": "uint256"
        }
      ],
      "stateMutability": "view",
      "type": "function"
    },
    {
      "inputs": [],
      "name": "baseExtension",
      "outputs": [
        {
          "internalType": "string",
          "name": "",
          "type": "string"
        }
      ],
      "stateMutability": "view",
      "type": "function"
    },
    {
      "inputs": [],
      "name": "baseURI",
      "outputs": [
        {
          "internalType": "string",
          "name": "",
          "type": "string"
        }
      ],
      "stateMutability": "view",
      "type": "function"
    },
    {
      "inputs": [
        {
          "internalType": "uint256",
          "name": "_tokenId",
          "type": "uint256"
        }
      ],
      "name": "buyToken",
      "outputs": [],
      "stateMutability": "payable",
      "type": "function"
    },
    {
      "inputs": [],
      "name": "getAllUnsoldTokens",
      "outputs": [
        {
          "components": [
            {
              "internalType": "uint256",
              "name": "tokenId",
              "type": "uint256"
            },
            {
              "internalType": "address payable",
              "name": "seller",
              "type": "address"
            },
            {
              "internalType": "uint256",
              "name": "price",
              "type": "uint256"
            }
          ],
          "internalType": "struct MusicNFTMarketplace.MarketItem[]",
          "name": "",
          "type": "tuple[]"
        }
      ],
      "stateMutability": "view",
      "type": "function"
    },
    {
      "inputs": [
        {
          "internalType": "uint256",
          "name": "tokenId",
          "type": "uint256"
        }
      ],
      "name": "getApproved",
      "outputs": [
        {
          "internalType": "address",
          "name": "",
          "type": "address"
        }
      ],
      "stateMutability": "view",
      "type": "function"
    },
    {
      "inputs": [],
      "name": "getMyTokens",
      "outputs": [
        {
          "components": [
            {
              "internalType": "uint256",
              "name": "tokenId",
              "type": "uint256"
            },
            {
              "internalType": "address payable",
              "name": "seller",
              "type": "address"
            },
            {
              "internalType": "uint256",
              "name": "price",
              "type": "uint256"
            }
          ],
          "internalType": "struct MusicNFTMarketplace.MarketItem[]",
          "name": "",
          "type": "tuple[]"
        }
      ],
      "stateMutability": "view",
      "type": "function"
    },
    {
      "inputs": [
        {
          "internalType": "address",
          "name": "owner",
          "type": "address"
        },
        {
          "internalType": "address",
          "name": "operator",
          "type": "address"
        }
      ],
      "name": "isApprovedForAll",
      "outputs": [
        {
          "internalType": "bool",
          "name": "",
          "type": "bool"
        }
      ],
      "stateMutability": "view",
      "type": "function"
    },
    {
      "inputs": [
        {
          "internalType": "uint256",
          "name": "",
          "type": "uint256"
        }
      ],
      "name": "marketItems",
      "outputs": [
        {
          "internalType": "uint256",
          "name": "tokenId",
          "type": "uint256"
        },
        {
          "internalType": "address payable",
          "name": "seller",
          "type": "address"
        },
        {
          "internalType": "uint256",
          "name": "price",
          "type": "uint256"
        }
      ],
      "stateMutability": "view",
      "type": "function"
    },
    {
      "inputs": [],
      "name": "name",
      "outputs": [
        {
          "internalType": "string",
          "name": "",
          "type": "string"
        }
      ],
      "stateMutability": "view",
      "type": "function"
    },
    {
      "inputs": [],
      "name": "owner",
      "outputs": [
        {
          "internalType": "address",
          "name": "",
          "type": "address"
        }
      ],
      "stateMutability": "view",
      "type": "function"
    },
    {
      "inputs": [
        {
          "internalType": "uint256",
          "name": "tokenId",
          "type": "uint256"
        }
      ],
      "name": "ownerOf",
      "outputs": [
        {
          "internalType": "address",
          "name": "",
          "type": "address"
        }
      ],
      "stateMutability": "view",
      "type": "function"
    },
    {
      "inputs": [],
      "name": "renounceOwnership",
      "outputs": [],
      "stateMutability": "nonpayable",
      "type": "function"
    },
    {
      "inputs": [
        {
          "internalType": "uint256",
          "name": "_tokenId",
          "type": "uint256"
        },
        {
          "internalType": "uint256",
          "name": "_price",
          "type": "uint256"
        }
      ],
      "name": "resellToken",
      "outputs": [],
      "stateMutability": "payable",
      "type": "function"
    },
    {
      "inputs": [],
      "name": "royaltyFee",
      "outputs": [
        {
          "internalType": "uint256",
          "name": "",
          "type": "uint256"
        }
      ],
      "stateMutability": "view",
      "type": "function"
    },
    {
      "inputs": [
        {
          "internalType": "address",
          "name": "from",
          "type": "address"
        },
        {
          "internalType": "address",
          "name": "to",
          "type": "address"
        },
        {
          "internalType": "uint256",
          "name": "tokenId",
          "type": "uint256"
        }
      ],
      "name": "safeTransferFrom",
      "outputs": [],
      "stateMutability": "nonpayable",
      "type": "function"
    },
    {
      "inputs": [
        {
          "internalType": "address",
          "name": "from",
          "type": "address"
        },
        {
          "internalType": "address",
          "name": "to",
          "type": "address"
        },
        {
          "internalType": "uint256",
          "name": "tokenId",
          "type": "uint256"
        },
        {
          "internalType": "bytes",
          "name": "_data",
          "type": "bytes"
        }
      ],
      "name": "safeTransferFrom",
      "outputs": [],
      "stateMutability": "nonpayable",
      "type": "function"
    },
    {
      "inputs": [
        {
          "internalType": "address",
          "name": "operator",
          "type": "address"
        },
        {
          "internalType": "bool",
          "name": "approved",
          "type": "bool"
        }
      ],
      "name": "setApprovalForAll",
      "outputs": [],
      "stateMutability": "nonpayable",
      "type": "function"
    },
    {
      "inputs": [
        {
          "internalType": "bytes4",
          "name": "interfaceId",
          "type": "bytes4"
        }
      ],
      "name": "supportsInterface",
      "outputs": [
        {
          "internalType": "bool",
          "name": "",
          "type": "bool"
        }
      ],
      "stateMutability": "view",
      "type": "function"
    },
    {
      "inputs": [],
      "name": "symbol",
      "outputs": [
        {
          "internalType": "string",
          "name": "",
          "type": "string"
        }
      ],
      "stateMutability": "view",
      "type": "function"
    },
    {
      "inputs": [
        {
          "internalType": "uint256",
          "name": "",
          "type": "uint256"
        }
      ],
      "name": "tokenIdToMetadata",
      "outputs": [
        {
          "internalType": "string",
          "name": "",
          "type": "string"
        }
      ],
      "stateMutability": "view",
      "type": "function"
    },
    {
      "inputs": [
        {
          "internalType": "uint256",
          "name": "tokenId",
          "type": "uint256"
        }
      ],
      "name": "tokenURI",
      "outputs": [
        {
          "internalType": "string",
          "name": "",
          "type": "string"
        }
      ],
      "stateMutability": "view",
      "type": "function"
    },
    {
      "inputs": [
        {
          "internalType": "address",
          "name": "from",
          "type": "address"
        },
        {
          "internalType": "address",
          "name": "to",
          "type": "address"
        },
        {
          "internalType": "uint256",
          "name": "tokenId",
          "type": "uint256"
        }
      ],
      "name": "transferFrom",
      "outputs": [],
      "stateMutability": "nonpayable",
      "type": "function"
    },
    {
      "inputs": [
        {
          "internalType": "address",
          "name": "newOwner",
          "type": "address"
        }
      ],
      "name": "transferOwnership",
      "outputs": [],
      "stateMutability": "nonpayable",
      "type": "function"
    },
    {
      "inputs": [
        {
          "internalType": "uint256",
          "name": "_royaltyFee",
          "type": "uint256"
        }
      ],
      "name": "updateRoyaltyFee",
      "outputs": [],
      "stateMutability": "nonpayable",
      "type": "function"
    }
  ],
  "bytecode": "0x6080604052604051806080016040528060598152602001620048a360599139600790805190602001906200003592919062000712565b506040518060400160405280600581526020017f2e6a736f6e000000000000000000000000000000000000000000000000000000815250600890805190602001906200008392919062000712565b50604051620048fc380380620048fc8339818101604052810190620000a9919062000892565b6040518060400160405280600681526020017f44417070466900000000000000000000000000000000000000000000000000008152506040518060400160405280600481526020017f444150500000000000000000000000000000000000000000000000000000000081525081600090805190602001906200012d92919062000712565b5080600190805190602001906200014692919062000712565b505050620001696200015d620003d460201b60201c565b620003dc60201b60201c565b3483825162000179919062000aeb565b1115620001bd576040517f08c379a0000000000000000000000000000000000000000000000000000000008152600401620001b490620009e1565b60405180910390fd5b82600a8190555081600960006101000a81548173ffffffffffffffffffffffffffffffffffffffff021916908373ffffffffffffffffffffffffffffffffffffffff16021790555060005b81518160ff161015620003ca576000828260ff168151811062000254577f4e487b7100000000000000000000000000000000000000000000000000000000600052603260045260246000fd5b6020026020010151116200029f576040517f08c379a0000000000000000000000000000000000000000000000000000000008152600401620002969062000a03565b60405180910390fd5b620002b4308260ff16620004a260201b60201c565b600c60405180606001604052808360ff1681526020013373ffffffffffffffffffffffffffffffffffffffff168152602001848460ff168151811062000323577f4e487b7100000000000000000000000000000000000000000000000000000000600052603260045260246000fd5b602002602001015181525090806001815401808255809150506001900390600052602060002090600302016000909190919091506000820151816000015560208201518160010160006101000a81548173ffffffffffffffffffffffffffffffffffffffff021916908373ffffffffffffffffffffffffffffffffffffffff1602179055506040820151816002015550508080620003c19062000c03565b91505062000208565b5050505062000df4565b600033905090565b6000600660009054906101000a900473ffffffffffffffffffffffffffffffffffffffff16905081600660006101000a81548173ffffffffffffffffffffffffffffffffffffffff021916908373ffffffffffffffffffffffffffffffffffffffff1602179055508173ffffffffffffffffffffffffffffffffffffffff168173ffffffffffffffffffffffffffffffffffffffff167f8be0079c531659141344cd1fd0a4f28419497f9722a3daafe3b4186f6b6457e060405160405180910390a35050565b600073ffffffffffffffffffffffffffffffffffffffff168273ffffffffffffffffffffffffffffffffffffffff16141562000515576040517f08c379a00000000000000000000000000000000000000000000000000000000081526004016200050c90620009bf565b60405180910390fd5b62000526816200069c60201b60201c565b1562000569576040517f08c379a000000000000000000000000000000000000000000000000000000000815260040162000560906200099d565b60405180910390fd5b6200057d600083836200070860201b60201c565b6001600360008473ffffffffffffffffffffffffffffffffffffffff1673ffffffffffffffffffffffffffffffffffffffff1681526020019081526020016000206000828254620005cf919062000a8e565b92505081905550816002600083815260200190815260200160002060006101000a81548173ffffffffffffffffffffffffffffffffffffffff021916908373ffffffffffffffffffffffffffffffffffffffff160217905550808273ffffffffffffffffffffffffffffffffffffffff16600073ffffffffffffffffffffffffffffffffffffffff167fddf252ad1be2c89b69c2b068fc378daa952ba7f163c4a11628f55a4df523b3ef60405160405180910390a462000698600083836200070d60201b60201c565b5050565b60008073ffffffffffffffffffffffffffffffffffffffff166002600084815260200190815260200160002060009054906101000a900473ffffffffffffffffffffffffffffffffffffffff1673ffffffffffffffffffffffffffffffffffffffff1614159050919050565b505050565b505050565b828054620007209062000b97565b90600052602060002090601f01602090048101928262000744576000855562000790565b82601f106200075f57805160ff191683800117855562000790565b8280016001018555821562000790579182015b828111156200078f57825182559160200191906001019062000772565b5b5090506200079f9190620007a3565b5090565b5b80821115620007be576000816000905550600101620007a4565b5090565b6000620007d9620007d38462000a4e565b62000a25565b90508083825260208201905082856020860282011115620007f957600080fd5b60005b858110156200082d57816200081288826200087b565b845260208401935060208301925050600181019050620007fc565b5050509392505050565b600081519050620008488162000dc0565b92915050565b600082601f8301126200086057600080fd5b815162000872848260208601620007c2565b91505092915050565b6000815190506200088c8162000dda565b92915050565b600080600060608486031215620008a857600080fd5b6000620008b8868287016200087b565b9350506020620008cb8682870162000837565b925050604084015167ffffffffffffffff811115620008e957600080fd5b620008f7868287016200084e565b9150509250925092565b600062000910601c8362000a7d565b91506200091d8262000cd0565b602082019050919050565b60006200093760208362000a7d565b9150620009448262000cf9565b602082019050919050565b60006200095e60468362000a7d565b91506200096b8262000d22565b606082019050919050565b600062000985601c8362000a7d565b9150620009928262000d97565b602082019050919050565b60006020820190508181036000830152620009b88162000901565b9050919050565b60006020820190508181036000830152620009da8162000928565b9050919050565b60006020820190508181036000830152620009fc816200094f565b9050919050565b6000602082019050818103600083015262000a1e8162000976565b9050919050565b600062000a3162000a44565b905062000a3f828262000bcd565b919050565b6000604051905090565b600067ffffffffffffffff82111562000a6c5762000a6b62000c90565b5b602082029050602081019050919050565b600082825260208201905092915050565b600062000a9b8262000b80565b915062000aa88362000b80565b9250827fffffffffffffffffffffffffffffffffffffffffffffffffffffffffffffffff0382111562000ae05762000adf62000c32565b5b828201905092915050565b600062000af88262000b80565b915062000b058362000b80565b9250817fffffffffffffffffffffffffffffffffffffffffffffffffffffffffffffffff048311821515161562000b415762000b4062000c32565b5b828202905092915050565b600062000b598262000b60565b9050919050565b600073ffffffffffffffffffffffffffffffffffffffff82169050919050565b6000819050919050565b600060ff82169050919050565b6000600282049050600182168062000bb057607f821691505b6020821081141562000bc75762000bc662000c61565b5b50919050565b62000bd88262000cbf565b810181811067ffffffffffffffff8211171562000bfa5762000bf962000c90565b5b80604052505050565b600062000c108262000b8a565b915060ff82141562000c275762000c2662000c32565b5b600182019050919050565b7f4e487b7100000000000000000000000000000000000000000000000000000000600052601160045260246000fd5b7f4e487b7100000000000000000000000000000000000000000000000000000000600052602260045260246000fd5b7f4e487b7100000000000000000000000000000000000000000000000000000000600052604160045260246000fd5b6000601f19601f8301169050919050565b7f4552433732313a20746f6b656e20616c7265616479206d696e74656400000000600082015250565b7f4552433732313a206d696e7420746f20746865207a65726f2061646472657373600082015250565b7f4465706c6f796572206d7573742070617920726f79616c74792066656520666f60008201527f72206561636820746f6b656e206c6973746564206f6e20746865206d61726b6560208201527f74706c6163650000000000000000000000000000000000000000000000000000604082015250565b7f5072696365206d7573742062652067726561746572207468616e203000000000600082015250565b62000dcb8162000b4c565b811462000dd757600080fd5b50565b62000de58162000b80565b811462000df157600080fd5b50565b613a9f8062000e046000396000f3fe60806040526004361061019c5760003560e01c806370a08231116100ec578063b8997a971161008a578063c87b56dd11610064578063c87b56dd146105bd578063e219fc75146105fa578063e985e9c514610616578063f2fde38b146106535761019c565b8063b8997a971461052a578063bf64db1d14610555578063c6682862146105925761019c565b80638da5cb5b116100c65780638da5cb5b1461048257806395d89b41146104ad578063a22cb465146104d8578063b88d4fde146105015761019c565b806370a0823114610403578063715018a614610440578063767dd076146104575761019c565b806342842e0e1161015957806351f28e141161013357806351f28e14146103315780635b3b136a146103705780636352211e1461039b5780636c0360eb146103d85761019c565b806342842e0e146102b457806343bc1612146102dd5780634e83be47146103085761019c565b806301ffc9a7146101a157806306fdde03146101de578063081812fc14610209578063095ea7b31461024657806323b872dd1461026f5780632d296bf114610298575b600080fd5b3480156101ad57600080fd5b506101c860048036038101906101c39190612923565b61067c565b6040516101d59190612eb8565b60405180910390f35b3480156101ea57600080fd5b506101f361075e565b6040516102009190612ed3565b60405180910390f35b34801561021557600080fd5b50610230600480360381019061022b9190612975565b6107f0565b60405161023d9190612e06565b60405180910390f35b34801561025257600080fd5b5061026d600480360381019061026891906128e7565b610875565b005b34801561027b57600080fd5b50610296600480360381019061029191906127e1565b61098d565b005b6102b260048036038101906102ad9190612975565b6109ed565b005b3480156102c057600080fd5b506102db60048036038101906102d691906127e1565b610c8d565b005b3480156102e957600080fd5b506102f2610cad565b6040516102ff9190612e06565b60405180910390f35b34801561031457600080fd5b5061032f600480360381019061032a9190612975565b610cd3565b005b34801561033d57600080fd5b5061035860048036038101906103539190612975565b610d59565b60405161036793929190613130565b60405180910390f35b34801561037c57600080fd5b50610385610db3565b6040516103929190612e96565b60405180910390f35b3480156103a757600080fd5b506103c260048036038101906103bd9190612975565b610fbe565b6040516103cf9190612e06565b60405180910390f35b3480156103e457600080fd5b506103ed611070565b6040516103fa9190612ed3565b60405180910390f35b34801561040f57600080fd5b5061042a6004803603810190610425919061277c565b6110fe565b6040516104379190613115565b60405180910390f35b34801561044c57600080fd5b506104556111b6565b005b34801561046357600080fd5b5061046c61123e565b6040516104799190612e96565b60405180910390f35b34801561048e57600080fd5b506104976114ac565b6040516104a49190612e06565b60405180910390f35b3480156104b957600080fd5b506104c26114d6565b6040516104cf9190612ed3565b60405180910390f35b3480156104e457600080fd5b506104ff60048036038101906104fa91906128ab565b611568565b005b34801561050d57600080fd5b5061052860048036038101906105239190612830565b61157e565b005b34801561053657600080fd5b5061053f6115e0565b60405161054c9190613115565b60405180910390f35b34801561056157600080fd5b5061057c60048036038101906105779190612975565b6115e6565b6040516105899190612ed3565b60405180910390f35b34801561059e57600080fd5b506105a7611686565b6040516105b49190612ed3565b60405180910390f35b3480156105c957600080fd5b506105e460048036038101906105df9190612975565b611714565b6040516105f19190612ed3565b60405180910390f35b610614600480360381019061060f919061299e565b6117bb565b005b34801561062257600080fd5b5061063d600480360381019061063891906127a5565b61197a565b60405161064a9190612eb8565b60405180910390f35b34801561065f57600080fd5b5061067a6004803603810190610675919061277c565b611a0e565b005b60007f80ac58cd000000000000000000000000000000000000000000000000000000007bffffffffffffffffffffffffffffffffffffffffffffffffffffffff1916827bffffffffffffffffffffffffffffffffffffffffffffffffffffffff1916148061074757507f5b5e139f000000000000000000000000000000000000000000000000000000007bffffffffffffffffffffffffffffffffffffffffffffffffffffffff1916827bffffffffffffffffffffffffffffffffffffffffffffffffffffffff1916145b80610757575061075682611b06565b5b9050919050565b60606000805461076d906133bc565b80601f0160208091040260200160405190810160405280929190818152602001828054610799906133bc565b80156107e65780601f106107bb576101008083540402835291602001916107e6565b820191906000526020600020905b8154815290600101906020018083116107c957829003601f168201915b5050505050905090565b60006107fb82611b70565b61083a576040517f08c379a000000000000000000000000000000000000000000000000000000000815260040161083190613075565b60405180910390fd5b6004600083815260200190815260200160002060009054906101000a900473ffffffffffffffffffffffffffffffffffffffff169050919050565b600061088082610fbe565b90508073ffffffffffffffffffffffffffffffffffffffff168373ffffffffffffffffffffffffffffffffffffffff1614156108f1576040517f08c379a00000000000000000000000000000000000000000000000000000000081526004016108e8906130d5565b60405180910390fd5b8073ffffffffffffffffffffffffffffffffffffffff16610910611bdc565b73ffffffffffffffffffffffffffffffffffffffff16148061093f575061093e81610939611bdc565b61197a565b5b61097e576040517f08c379a000000000000000000000000000000000000000000000000000000000815260040161097590612ff5565b60405180910390fd5b6109888383611be4565b505050565b61099e610998611bdc565b82611c9d565b6109dd576040517f08c379a00000000000000000000000000000000000000000000000000000000081526004016109d4906130f5565b60405180910390fd5b6109e8838383611d7b565b505050565b6000600c8281548110610a29577f4e487b7100000000000000000000000000000000000000000000000000000000600052603260045260246000fd5b90600052602060002090600302016002015490506000600c8381548110610a79577f4e487b7100000000000000000000000000000000000000000000000000000000600052603260045260246000fd5b906000526020600020906003020160010160009054906101000a900473ffffffffffffffffffffffffffffffffffffffff169050813414610aef576040517f08c379a0000000000000000000000000000000000000000000000000000000008152600401610ae690613055565b60405180910390fd5b6000600c8481548110610b2b577f4e487b7100000000000000000000000000000000000000000000000000000000600052603260045260246000fd5b906000526020600020906003020160010160006101000a81548173ffffffffffffffffffffffffffffffffffffffff021916908373ffffffffffffffffffffffffffffffffffffffff160217905550610b85303385611d7b565b600960009054906101000a900473ffffffffffffffffffffffffffffffffffffffff1673ffffffffffffffffffffffffffffffffffffffff166108fc600a549081150290604051600060405180830381858888f19350505050158015610bef573d6000803e3d6000fd5b508073ffffffffffffffffffffffffffffffffffffffff166108fc349081150290604051600060405180830381858888f19350505050158015610c36573d6000803e3d6000fd5b508073ffffffffffffffffffffffffffffffffffffffff16837fd356b8423ef89ccba8e4f1dbeccc60b41825fd97d432f2e6a6dbd11ae6ecec113385604051610c80929190612e6d565b60405180910390a3505050565b610ca88383836040518060200160405280600081525061157e565b505050565b600960009054906101000a900473ffffffffffffffffffffffffffffffffffffffff1681565b610cdb611bdc565b73ffffffffffffffffffffffffffffffffffffffff16610cf96114ac565b73ffffffffffffffffffffffffffffffffffffffff1614610d4f576040517f08c379a0000000000000000000000000000000000000000000000000000000008152600401610d4690613095565b60405180910390fd5b80600a8190555050565b600c8181548110610d6957600080fd5b90600052602060002090600302016000915090508060000154908060010160009054906101000a900473ffffffffffffffffffffffffffffffffffffffff16908060020154905083565b60606000610dc0336110fe565b905060008167ffffffffffffffff811115610e04577f4e487b7100000000000000000000000000000000000000000000000000000000600052604160045260246000fd5b604051908082528060200260200182016040528015610e3d57816020015b610e2a612674565b815260200190600190039081610e225790505b509050600080600090505b600c80549050811015610fb4573373ffffffffffffffffffffffffffffffffffffffff16610e7582610fbe565b73ffffffffffffffffffffffffffffffffffffffff161415610fa157600c8181548110610ecb577f4e487b7100000000000000000000000000000000000000000000000000000000600052603260045260246000fd5b9060005260206000209060030201604051806060016040529081600082015481526020016001820160009054906101000a900473ffffffffffffffffffffffffffffffffffffffff1673ffffffffffffffffffffffffffffffffffffffff1673ffffffffffffffffffffffffffffffffffffffff168152602001600282015481525050838381518110610f87577f4e487b7100000000000000000000000000000000000000000000000000000000600052603260045260246000fd5b60200260200101819052508180610f9d9061341f565b9250505b8080610fac9061341f565b915050610e48565b5081935050505090565b6000806002600084815260200190815260200160002060009054906101000a900473ffffffffffffffffffffffffffffffffffffffff169050600073ffffffffffffffffffffffffffffffffffffffff168173ffffffffffffffffffffffffffffffffffffffff161415611067576040517f08c379a000000000000000000000000000000000000000000000000000000000815260040161105e90613035565b60405180910390fd5b80915050919050565b6007805461107d906133bc565b80601f01602080910402602001604051908101604052809291908181526020018280546110a9906133bc565b80156110f65780601f106110cb576101008083540402835291602001916110f6565b820191906000526020600020905b8154815290600101906020018083116110d957829003601f168201915b505050505081565b60008073ffffffffffffffffffffffffffffffffffffffff168273ffffffffffffffffffffffffffffffffffffffff16141561116f576040517f08c379a000000000000000000000000000000000000000000000000000000000815260040161116690613015565b60405180910390fd5b600360008373ffffffffffffffffffffffffffffffffffffffff1673ffffffffffffffffffffffffffffffffffffffff168152602001908152602001600020549050919050565b6111be611bdc565b73ffffffffffffffffffffffffffffffffffffffff166111dc6114ac565b73ffffffffffffffffffffffffffffffffffffffff1614611232576040517f08c379a000000000000000000000000000000000000000000000000000000000815260040161122990613095565b60405180910390fd5b61123c6000611fe2565b565b6060600061124b306110fe565b905060008167ffffffffffffffff81111561128f577f4e487b7100000000000000000000000000000000000000000000000000000000600052604160045260246000fd5b6040519080825280602002602001820160405280156112c857816020015b6112b5612674565b8152602001906001900390816112ad5790505b509050600080600090505b600c805490508110156114a257600073ffffffffffffffffffffffffffffffffffffffff16600c8281548110611332577f4e487b7100000000000000000000000000000000000000000000000000000000600052603260045260246000fd5b906000526020600020906003020160010160009054906101000a900473ffffffffffffffffffffffffffffffffffffffff1673ffffffffffffffffffffffffffffffffffffffff161461148f57600c81815481106113b9577f4e487b7100000000000000000000000000000000000000000000000000000000600052603260045260246000fd5b9060005260206000209060030201604051806060016040529081600082015481526020016001820160009054906101000a900473ffffffffffffffffffffffffffffffffffffffff1673ffffffffffffffffffffffffffffffffffffffff1673ffffffffffffffffffffffffffffffffffffffff168152602001600282015481525050838381518110611475577f4e487b7100000000000000000000000000000000000000000000000000000000600052603260045260246000fd5b6020026020010181905250818061148b9061341f565b9250505b808061149a9061341f565b9150506112d3565b5081935050505090565b6000600660009054906101000a900473ffffffffffffffffffffffffffffffffffffffff16905090565b6060600180546114e5906133bc565b80601f0160208091040260200160405190810160405280929190818152602001828054611511906133bc565b801561155e5780601f106115335761010080835404028352916020019161155e565b820191906000526020600020905b81548152906001019060200180831161154157829003601f168201915b5050505050905090565b61157a611573611bdc565b83836120a8565b5050565b61158f611589611bdc565b83611c9d565b6115ce576040517f08c379a00000000000000000000000000000000000000000000000000000000081526004016115c5906130f5565b60405180910390fd5b6115da84848484612215565b50505050565b600a5481565b600b6020528060005260406000206000915090508054611605906133bc565b80601f0160208091040260200160405190810160405280929190818152602001828054611631906133bc565b801561167e5780601f106116535761010080835404028352916020019161167e565b820191906000526020600020905b81548152906001019060200180831161166157829003601f168201915b505050505081565b60088054611693906133bc565b80601f01602080910402602001604051908101604052809291908181526020018280546116bf906133bc565b801561170c5780601f106116e15761010080835404028352916020019161170c565b820191906000526020600020905b8154815290600101906020018083116116ef57829003601f168201915b505050505081565b606061171f82611b70565b61175e576040517f08c379a0000000000000000000000000000000000000000000000000000000008152600401611755906130b5565b60405180910390fd5b6000611768612271565b9050600081511161178857604051806020016040528060008152506117b3565b8061179284612303565b6040516020016117a3929190612de2565b6040516020818303038152906040525b915050919050565b600a5434146117ff576040517f08c379a00000000000000000000000000000000000000000000000000000000081526004016117f690612f75565b60405180910390fd5b60008111611842576040517f08c379a000000000000000000000000000000000000000000000000000000000815260040161183990612ef5565b60405180910390fd5b80600c838154811061187d577f4e487b7100000000000000000000000000000000000000000000000000000000600052603260045260246000fd5b90600052602060002090600302016002018190555033600c83815481106118cd577f4e487b7100000000000000000000000000000000000000000000000000000000600052603260045260246000fd5b906000526020600020906003020160010160006101000a81548173ffffffffffffffffffffffffffffffffffffffff021916908373ffffffffffffffffffffffffffffffffffffffff160217905550611927333084611d7b565b3373ffffffffffffffffffffffffffffffffffffffff16827fb2ba12d2566848b13548a3741edb565b69d3cbce7796959cd67431610207eb138360405161196e9190613115565b60405180910390a35050565b6000600560008473ffffffffffffffffffffffffffffffffffffffff1673ffffffffffffffffffffffffffffffffffffffff16815260200190815260200160002060008373ffffffffffffffffffffffffffffffffffffffff1673ffffffffffffffffffffffffffffffffffffffff16815260200190815260200160002060009054906101000a900460ff16905092915050565b611a16611bdc565b73ffffffffffffffffffffffffffffffffffffffff16611a346114ac565b73ffffffffffffffffffffffffffffffffffffffff1614611a8a576040517f08c379a0000000000000000000000000000000000000000000000000000000008152600401611a8190613095565b60405180910390fd5b600073ffffffffffffffffffffffffffffffffffffffff168173ffffffffffffffffffffffffffffffffffffffff161415611afa576040517f08c379a0000000000000000000000000000000000000000000000000000000008152600401611af190612f35565b60405180910390fd5b611b0381611fe2565b50565b60007f01ffc9a7000000000000000000000000000000000000000000000000000000007bffffffffffffffffffffffffffffffffffffffffffffffffffffffff1916827bffffffffffffffffffffffffffffffffffffffffffffffffffffffff1916149050919050565b60008073ffffffffffffffffffffffffffffffffffffffff166002600084815260200190815260200160002060009054906101000a900473ffffffffffffffffffffffffffffffffffffffff1673ffffffffffffffffffffffffffffffffffffffff1614159050919050565b600033905090565b816004600083815260200190815260200160002060006101000a81548173ffffffffffffffffffffffffffffffffffffffff021916908373ffffffffffffffffffffffffffffffffffffffff160217905550808273ffffffffffffffffffffffffffffffffffffffff16611c5783610fbe565b73ffffffffffffffffffffffffffffffffffffffff167f8c5be1e5ebec7d5bd14f71427d1e84f3dd0314c0f7b2291e5b200ac8c7c3b92560405160405180910390a45050565b6000611ca882611b70565b611ce7576040517f08c379a0000000000000000000000000000000000000000000000000000000008152600401611cde90612fd5565b60405180910390fd5b6000611cf283610fbe565b90508073ffffffffffffffffffffffffffffffffffffffff168473ffffffffffffffffffffffffffffffffffffffff161480611d6157508373ffffffffffffffffffffffffffffffffffffffff16611d49846107f0565b73ffffffffffffffffffffffffffffffffffffffff16145b80611d725750611d71818561197a565b5b91505092915050565b8273ffffffffffffffffffffffffffffffffffffffff16611d9b82610fbe565b73ffffffffffffffffffffffffffffffffffffffff1614611df1576040517f08c379a0000000000000000000000000000000000000000000000000000000008152600401611de890612f55565b60405180910390fd5b600073ffffffffffffffffffffffffffffffffffffffff168273ffffffffffffffffffffffffffffffffffffffff161415611e61576040517f08c379a0000000000000000000000000000000000000000000000000000000008152600401611e5890612f95565b60405180910390fd5b611e6c8383836124b0565b611e77600082611be4565b6001600360008573ffffffffffffffffffffffffffffffffffffffff1673ffffffffffffffffffffffffffffffffffffffff1681526020019081526020016000206000828254611ec791906132c0565b925050819055506001600360008473ffffffffffffffffffffffffffffffffffffffff1673ffffffffffffffffffffffffffffffffffffffff1681526020019081526020016000206000828254611f1e9190613239565b92505081905550816002600083815260200190815260200160002060006101000a81548173ffffffffffffffffffffffffffffffffffffffff021916908373ffffffffffffffffffffffffffffffffffffffff160217905550808273ffffffffffffffffffffffffffffffffffffffff168473ffffffffffffffffffffffffffffffffffffffff167fddf252ad1be2c89b69c2b068fc378daa952ba7f163c4a11628f55a4df523b3ef60405160405180910390a4611fdd8383836124b5565b505050565b6000600660009054906101000a900473ffffffffffffffffffffffffffffffffffffffff16905081600660006101000a81548173ffffffffffffffffffffffffffffffffffffffff021916908373ffffffffffffffffffffffffffffffffffffffff1602179055508173ffffffffffffffffffffffffffffffffffffffff168173ffffffffffffffffffffffffffffffffffffffff167f8be0079c531659141344cd1fd0a4f28419497f9722a3daafe3b4186f6b6457e060405160405180910390a35050565b8173ffffffffffffffffffffffffffffffffffffffff168373ffffffffffffffffffffffffffffffffffffffff161415612117576040517f08c379a000000000000000000000000000000000000000000000000000000000815260040161210e90612fb5565b60405180910390fd5b80600560008573ffffffffffffffffffffffffffffffffffffffff1673ffffffffffffffffffffffffffffffffffffffff16815260200190815260200160002060008473ffffffffffffffffffffffffffffffffffffffff1673ffffffffffffffffffffffffffffffffffffffff16815260200190815260200160002060006101000a81548160ff0219169083151502179055508173ffffffffffffffffffffffffffffffffffffffff168373ffffffffffffffffffffffffffffffffffffffff167f17307eab39ab6107e8899845ad3d59bd9653f200f220920489ca2b5937696c31836040516122089190612eb8565b60405180910390a3505050565b612220848484611d7b565b61222c848484846124ba565b61226b576040517f08c379a000000000000000000000000000000000000000000000000000000000815260040161226290612f15565b60405180910390fd5b50505050565b606060078054612280906133bc565b80601f01602080910402602001604051908101604052809291908181526020018280546122ac906133bc565b80156122f95780601f106122ce576101008083540402835291602001916122f9565b820191906000526020600020905b8154815290600101906020018083116122dc57829003601f168201915b5050505050905090565b6060600082141561234b576040518060400160405280600181526020017f300000000000000000000000000000000000000000000000000000000000000081525090506124ab565b600082905060005b6000821461237d5780806123669061341f565b915050600a82612376919061328f565b9150612353565b60008167ffffffffffffffff8111156123bf577f4e487b7100000000000000000000000000000000000000000000000000000000600052604160045260246000fd5b6040519080825280601f01601f1916602001820160405280156123f15781602001600182028036833780820191505090505b5090505b600085146124a45760018261240a91906132c0565b9150600a856124199190613468565b60306124259190613239565b60f81b818381518110612461577f4e487b7100000000000000000000000000000000000000000000000000000000600052603260045260246000fd5b60200101907effffffffffffffffffffffffffffffffffffffffffffffffffffffffffffff1916908160001a905350600a8561249d919061328f565b94506123f5565b8093505050505b919050565b505050565b505050565b60006124db8473ffffffffffffffffffffffffffffffffffffffff16612651565b15612644578373ffffffffffffffffffffffffffffffffffffffff1663150b7a02612504611bdc565b8786866040518563ffffffff1660e01b81526004016125269493929190612e21565b602060405180830381600087803b15801561254057600080fd5b505af192505050801561257157506040513d601f19601f8201168201806040525081019061256e919061294c565b60015b6125f4573d80600081146125a1576040519150601f19603f3d011682016040523d82523d6000602084013e6125a6565b606091505b506000815114156125ec576040517f08c379a00000000000000000000000000000000000000000000000000000000081526004016125e390612f15565b60405180910390fd5b805181602001fd5b63150b7a0260e01b7bffffffffffffffffffffffffffffffffffffffffffffffffffffffff1916817bffffffffffffffffffffffffffffffffffffffffffffffffffffffff191614915050612649565b600190505b949350505050565b6000808273ffffffffffffffffffffffffffffffffffffffff163b119050919050565b604051806060016040528060008152602001600073ffffffffffffffffffffffffffffffffffffffff168152602001600081525090565b60006126be6126b98461318c565b613167565b9050828152602081018484840111156126d657600080fd5b6126e184828561337a565b509392505050565b6000813590506126f881613a0d565b92915050565b60008135905061270d81613a24565b92915050565b60008135905061272281613a3b565b92915050565b60008151905061273781613a3b565b92915050565b600082601f83011261274e57600080fd5b813561275e8482602086016126ab565b91505092915050565b60008135905061277681613a52565b92915050565b60006020828403121561278e57600080fd5b600061279c848285016126e9565b91505092915050565b600080604083850312156127b857600080fd5b60006127c6858286016126e9565b92505060206127d7858286016126e9565b9150509250929050565b6000806000606084860312156127f657600080fd5b6000612804868287016126e9565b9350506020612815868287016126e9565b925050604061282686828701612767565b9150509250925092565b6000806000806080858703121561284657600080fd5b6000612854878288016126e9565b9450506020612865878288016126e9565b935050604061287687828801612767565b925050606085013567ffffffffffffffff81111561289357600080fd5b61289f8782880161273d565b91505092959194509250565b600080604083850312156128be57600080fd5b60006128cc858286016126e9565b92505060206128dd858286016126fe565b9150509250929050565b600080604083850312156128fa57600080fd5b6000612908858286016126e9565b925050602061291985828601612767565b9150509250929050565b60006020828403121561293557600080fd5b600061294384828501612713565b91505092915050565b60006020828403121561295e57600080fd5b600061296c84828501612728565b91505092915050565b60006020828403121561298757600080fd5b600061299584828501612767565b91505092915050565b600080604083850312156129b157600080fd5b60006129bf85828601612767565b92505060206129d085828601612767565b9150509250929050565b60006129e68383612d82565b60608301905092915050565b6129fb81613306565b82525050565b612a0a81613306565b82525050565b612a19816132f4565b82525050565b6000612a2a826131cd565b612a3481856131fb565b9350612a3f836131bd565b8060005b83811015612a70578151612a5788826129da565b9750612a62836131ee565b925050600181019050612a43565b5085935050505092915050565b612a8681613318565b82525050565b6000612a97826131d8565b612aa1818561320c565b9350612ab1818560208601613389565b612aba81613555565b840191505092915050565b6000612ad0826131e3565b612ada818561321d565b9350612aea818560208601613389565b612af381613555565b840191505092915050565b6000612b09826131e3565b612b13818561322e565b9350612b23818560208601613389565b80840191505092915050565b6000612b3c601f8361321d565b9150612b4782613566565b602082019050919050565b6000612b5f60328361321d565b9150612b6a8261358f565b604082019050919050565b6000612b8260268361321d565b9150612b8d826135de565b604082019050919050565b6000612ba560258361321d565b9150612bb08261362d565b604082019050919050565b6000612bc860108361321d565b9150612bd38261367c565b602082019050919050565b6000612beb60248361321d565b9150612bf6826136a5565b604082019050919050565b6000612c0e60198361321d565b9150612c19826136f4565b602082019050919050565b6000612c31602c8361321d565b9150612c3c8261371d565b604082019050919050565b6000612c5460388361321d565b9150612c5f8261376c565b604082019050919050565b6000612c77602a8361321d565b9150612c82826137bb565b604082019050919050565b6000612c9a60298361321d565b9150612ca58261380a565b604082019050919050565b6000612cbd603e8361321d565b9150612cc882613859565b604082019050919050565b6000612ce0602c8361321d565b9150612ceb826138a8565b604082019050919050565b6000612d0360208361321d565b9150612d0e826138f7565b602082019050919050565b6000612d26602f8361321d565b9150612d3182613920565b604082019050919050565b6000612d4960218361321d565b9150612d548261396f565b604082019050919050565b6000612d6c60318361321d565b9150612d77826139be565b604082019050919050565b606082016000820151612d986000850182612dc4565b506020820151612dab60208501826129f2565b506040820151612dbe6040850182612dc4565b50505050565b612dcd81613370565b82525050565b612ddc81613370565b82525050565b6000612dee8285612afe565b9150612dfa8284612afe565b91508190509392505050565b6000602082019050612e1b6000830184612a10565b92915050565b6000608082019050612e366000830187612a10565b612e436020830186612a10565b612e506040830185612dd3565b8181036060830152612e628184612a8c565b905095945050505050565b6000604082019050612e826000830185612a10565b612e8f6020830184612dd3565b9392505050565b60006020820190508181036000830152612eb08184612a1f565b905092915050565b6000602082019050612ecd6000830184612a7d565b92915050565b60006020820190508181036000830152612eed8184612ac5565b905092915050565b60006020820190508181036000830152612f0e81612b2f565b9050919050565b60006020820190508181036000830152612f2e81612b52565b9050919050565b60006020820190508181036000830152612f4e81612b75565b9050919050565b60006020820190508181036000830152612f6e81612b98565b9050919050565b60006020820190508181036000830152612f8e81612bbb565b9050919050565b60006020820190508181036000830152612fae81612bde565b9050919050565b60006020820190508181036000830152612fce81612c01565b9050919050565b60006020820190508181036000830152612fee81612c24565b9050919050565b6000602082019050818103600083015261300e81612c47565b9050919050565b6000602082019050818103600083015261302e81612c6a565b9050919050565b6000602082019050818103600083015261304e81612c8d565b9050919050565b6000602082019050818103600083015261306e81612cb0565b9050919050565b6000602082019050818103600083015261308e81612cd3565b9050919050565b600060208201905081810360008301526130ae81612cf6565b9050919050565b600060208201905081810360008301526130ce81612d19565b9050919050565b600060208201905081810360008301526130ee81612d3c565b9050919050565b6000602082019050818103600083015261310e81612d5f565b9050919050565b600060208201905061312a6000830184612dd3565b92915050565b60006060820190506131456000830186612dd3565b6131526020830185612a01565b61315f6040830184612dd3565b949350505050565b6000613171613182565b905061317d82826133ee565b919050565b6000604051905090565b600067ffffffffffffffff8211156131a7576131a6613526565b5b6131b082613555565b9050602081019050919050565b6000819050602082019050919050565b600081519050919050565b600081519050919050565b600081519050919050565b6000602082019050919050565b600082825260208201905092915050565b600082825260208201905092915050565b600082825260208201905092915050565b600081905092915050565b600061324482613370565b915061324f83613370565b9250827fffffffffffffffffffffffffffffffffffffffffffffffffffffffffffffffff0382111561328457613283613499565b5b828201905092915050565b600061329a82613370565b91506132a583613370565b9250826132b5576132b46134c8565b5b828204905092915050565b60006132cb82613370565b91506132d683613370565b9250828210156132e9576132e8613499565b5b828203905092915050565b60006132ff82613350565b9050919050565b600061331182613350565b9050919050565b60008115159050919050565b60007fffffffff0000000000000000000000000000000000000000000000000000000082169050919050565b600073ffffffffffffffffffffffffffffffffffffffff82169050919050565b6000819050919050565b82818337600083830152505050565b60005b838110156133a757808201518184015260208101905061338c565b838111156133b6576000848401525b50505050565b600060028204905060018216806133d457607f821691505b602082108114156133e8576133e76134f7565b5b50919050565b6133f782613555565b810181811067ffffffffffffffff8211171561341657613415613526565b5b80604052505050565b600061342a82613370565b91507fffffffffffffffffffffffffffffffffffffffffffffffffffffffffffffffff82141561345d5761345c613499565b5b600182019050919050565b600061347382613370565b915061347e83613370565b92508261348e5761348d6134c8565b5b828206905092915050565b7f4e487b7100000000000000000000000000000000000000000000000000000000600052601160045260246000fd5b7f4e487b7100000000000000000000000000000000000000000000000000000000600052601260045260246000fd5b7f4e487b7100000000000000000000000000000000000000000000000000000000600052602260045260246000fd5b7f4e487b7100000000000000000000000000000000000000000000000000000000600052604160045260246000fd5b6000601f19601f8301169050919050565b7f5072696365206d7573742062652067726561746572207468616e207a65726f00600082015250565b7f4552433732313a207472616e7366657220746f206e6f6e20455243373231526560008201527f63656976657220696d706c656d656e7465720000000000000000000000000000602082015250565b7f4f776e61626c653a206e6577206f776e657220697320746865207a65726f206160008201527f6464726573730000000000000000000000000000000000000000000000000000602082015250565b7f4552433732313a207472616e736665722066726f6d20696e636f72726563742060008201527f6f776e6572000000000000000000000000000000000000000000000000000000602082015250565b7f4d7573742070617920726f79616c747900000000000000000000000000000000600082015250565b7f4552433732313a207472616e7366657220746f20746865207a65726f2061646460008201527f7265737300000000000000000000000000000000000000000000000000000000602082015250565b7f4552433732313a20617070726f766520746f2063616c6c657200000000000000600082015250565b7f4552433732313a206f70657261746f7220717565727920666f72206e6f6e657860008201527f697374656e7420746f6b656e0000000000000000000000000000000000000000602082015250565b7f4552433732313a20617070726f76652063616c6c6572206973206e6f74206f7760008201527f6e6572206e6f7220617070726f76656420666f7220616c6c0000000000000000602082015250565b7f4552433732313a2062616c616e636520717565727920666f7220746865207a6560008201527f726f206164647265737300000000000000000000000000000000000000000000602082015250565b7f4552433732313a206f776e657220717565727920666f72206e6f6e657869737460008201527f656e7420746f6b656e0000000000000000000000000000000000000000000000602082015250565b7f506c656173652073656e64207468652061736b696e6720707269636520696e2060008201527f6f7264657220746f20636f6d706c657465207468652070757263686173650000602082015250565b7f4552433732313a20617070726f76656420717565727920666f72206e6f6e657860008201527f697374656e7420746f6b656e0000000000000000000000000000000000000000602082015250565b7f4f776e61626c653a2063616c6c6572206973206e6f7420746865206f776e6572600082015250565b7f4552433732314d657461646174613a2055524920717565727920666f72206e6f60008201527f6e6578697374656e7420746f6b656e0000000000000000000000000000000000602082015250565b7f4552433732313a20617070726f76616c20746f2063757272656e74206f776e6560008201527f7200000000000000000000000000000000000000000000000000000000000000602082015250565b7f4552433732313a207472616e736665722063616c6c6572206973206e6f74206f60008201527f776e6572206e6f7220617070726f766564000000000000000000000000000000602082015250565b613a16816132f4565b8114613a2157600080fd5b50565b613a2d81613318565b8114613a3857600080fd5b50565b613a4481613324565b8114613a4f57600080fd5b50565b613a5b81613370565b8114613a6657600080fd5b5056fea26469706673582212204bd8bde7e83ee712fe31ec5b389eeacd1f29ff0dda5fe5b0b463204b9b83cb5b64736f6c6343000804003368747470733a2f2f6261667962656964686a6a626a6f6e7971636168757a6c707437737a6e6d683478726c62737061336773746f70356f34376c3667736961666665652e697066732e6e667473746f726167652e6c696e6b2f",
  "linkReferences": {},
  "deployedLinkReferences": {}
}